{
    "contractName": "Todolist",
    "abi": [
        {
            "constant": true,
            "inputs": [],
            "name": "taskCount",
            "outputs": [
                {
                    "name": "",
                    "type": "uint256"
                }
            ],
            "payable": false,
            "stateMutability": "view",
            "type": "function"
        }
    ],
    "bytecode": "608060405260008055348015601357600080fd5b506099806100226000396000f3fe608060405260043610603e5763ffffffff7c0100000000000000000000000000000000000000000000000000000000600035041663b6cb58a581146043575b600080fd5b348015604e57600080fd5b5060556067565b60408051918252519081900360200190f35b6000548156fea165627a7a7230582057638d6ec8fd606eae41601811a22e8240b9fbe19f116b4ba220febb4b3c188a0029",
    "sourcePath": "/home/raider0ne/projects/blockchain/first-dapp/contracts/todolist.sol",
    "compiler": {
        "name": "solc",
        "version": "0.5.0+commit.1d4f565a"
    },
    "functionHashes": {
        "taskCount()": "b6cb58a5"
    },
    "gasEstimates": {
        "creation": {
            "codeDepositCost": "30600",
            "executionCost": "5087",
            "totalCost": "35687"
        },
        "external": {
            "taskCount()": "384"
        }
    }
}